{
  "contractName": "LandContract",
  "abi": [
    {
      "inputs": [],
      "stateMutability": "nonpayable",
      "type": "constructor"
    },
    {
      "anonymous": false,
      "inputs": [
        {
          "indexed": false,
          "internalType": "uint256",
          "name": "index",
          "type": "uint256"
        },
        {
          "indexed": false,
          "internalType": "uint256",
          "name": "price",
          "type": "uint256"
        },
        {
          "indexed": false,
          "internalType": "bool",
          "name": "forSale",
          "type": "bool"
        }
      ],
      "name": "PlotAvailabilityChanged",
      "type": "event"
    },
    {
      "anonymous": false,
      "inputs": [
        {
          "indexed": false,
          "internalType": "uint256",
          "name": "index",
          "type": "uint256"
        }
      ],
      "name": "PlotOwnerChanged",
      "type": "event"
    },
    {
      "anonymous": false,
      "inputs": [
        {
          "indexed": false,
          "internalType": "uint256",
          "name": "index",
          "type": "uint256"
        },
        {
          "indexed": false,
          "internalType": "uint256",
          "name": "price",
          "type": "uint256"
        }
      ],
      "name": "PlotPriceChanged",
      "type": "event"
    },
    {
      "inputs": [
        {
          "internalType": "address",
          "name": "",
          "type": "address"
        }
      ],
      "name": "balances",
      "outputs": [
        {
          "internalType": "uint256",
          "name": "",
          "type": "uint256"
        }
      ],
      "stateMutability": "view",
      "type": "function",
      "constant": true
    },
    {
      "inputs": [
        {
          "internalType": "uint256",
          "name": "",
          "type": "uint256"
        }
      ],
      "name": "plots",
      "outputs": [
        {
          "internalType": "address",
          "name": "owner",
          "type": "address"
        },
        {
          "internalType": "bool",
          "name": "forSale",
          "type": "bool"
        },
        {
          "internalType": "uint256",
          "name": "price",
          "type": "uint256"
        }
      ],
      "stateMutability": "view",
      "type": "function",
      "constant": true
    },
    {
      "inputs": [
        {
          "internalType": "uint256",
          "name": "index",
          "type": "uint256"
        },
        {
          "internalType": "uint256",
          "name": "price",
          "type": "uint256"
        }
      ],
      "name": "putPlotUpForSale",
      "outputs": [],
      "stateMutability": "nonpayable",
      "type": "function"
    },
    {
      "inputs": [
        {
          "internalType": "uint256",
          "name": "index",
          "type": "uint256"
        }
      ],
      "name": "takeOffMarket",
      "outputs": [],
      "stateMutability": "nonpayable",
      "type": "function"
    },
    {
      "inputs": [],
      "name": "getPlots",
      "outputs": [
        {
          "internalType": "address[]",
          "name": "",
          "type": "address[]"
        },
        {
          "internalType": "bool[]",
          "name": "",
          "type": "bool[]"
        },
        {
          "internalType": "uint256[]",
          "name": "",
          "type": "uint256[]"
        }
      ],
      "stateMutability": "view",
      "type": "function",
      "constant": true
    },
    {
      "inputs": [
        {
          "internalType": "uint256",
          "name": "index",
          "type": "uint256"
        }
      ],
      "name": "buyPlot",
      "outputs": [],
      "stateMutability": "payable",
      "type": "function",
      "payable": true
    },
    {
      "inputs": [],
      "name": "withdrawFunds",
      "outputs": [],
      "stateMutability": "payable",
      "type": "function",
      "payable": true
    },
    {
      "inputs": [],
      "name": "destroy",
      "outputs": [],
      "stateMutability": "payable",
      "type": "function",
      "payable": true
    }
  ],
  "bytecode": "0x60806040523480156200001157600080fd5b50336000806101000a81548173ffffffffffffffffffffffffffffffffffffffff021916908373ffffffffffffffffffffffffffffffffffffffff160217905550610fa060026000600c81106200006d576200006c620004be565b5b6002020160010181905550600160026000600c8110620000925762000091620004be565b5b6002020160000160146101000a81548160ff021916908315150217905550610fa060026001600c8110620000cb57620000ca620004be565b5b6002020160010181905550600160026001600c8110620000f057620000ef620004be565b5b6002020160000160146101000a81548160ff021916908315150217905550610fa0600280600c8110620001285762000127620004be565b5b60020201600101819055506001600280600c81106200014c576200014b620004be565b5b6002020160000160146101000a81548160ff021916908315150217905550610fa060026003600c8110620001855762000184620004be565b5b6002020160010181905550600160026003600c8110620001aa57620001a9620004be565b5b6002020160000160146101000a81548160ff021916908315150217905550610fa060026004600c8110620001e357620001e2620004be565b5b6002020160010181905550600160026004600c8110620002085762000207620004be565b5b6002020160000160146101000a81548160ff021916908315150217905550610fa060026005600c8110620002415762000240620004be565b5b6002020160010181905550600160026005600c8110620002665762000265620004be565b5b6002020160000160146101000a81548160ff021916908315150217905550610fa060026006600c81106200029f576200029e620004be565b5b6002020160010181905550600160026006600c8110620002c457620002c3620004be565b5b6002020160000160146101000a81548160ff021916908315150217905550610fa060026007600c8110620002fd57620002fc620004be565b5b6002020160010181905550600160026007600c8110620003225762000321620004be565b5b6002020160000160146101000a81548160ff021916908315150217905550610fa060026008600c81106200035b576200035a620004be565b5b6002020160010181905550600160026008600c811062000380576200037f620004be565b5b6002020160000160146101000a81548160ff021916908315150217905550610fa060026009600c8110620003b957620003b8620004be565b5b6002020160010181905550600160026009600c8110620003de57620003dd620004be565b5b6002020160000160146101000a81548160ff021916908315150217905550610fa06002600a600c8110620004175762000416620004be565b5b600202016001018190555060016002600a600c81106200043c576200043b620004be565b5b6002020160000160146101000a81548160ff021916908315150217905550610fa06002600b600c8110620004755762000474620004be565b5b600202016001018190555060016002600b600c81106200049a5762000499620004be565b5b6002020160000160146101000a81548160ff021916908315150217905550620004ed565b7f4e487b7100000000000000000000000000000000000000000000000000000000600052603260045260246000fd5b610f4580620004fd6000396000f3fe60806040526004361061007b5760003560e01c806383197ef01161004e57806383197ef014610122578063d13114461461012c578063d81595f114610155578063f9cf80a91461017e5761007b565b806324600fc31461008057806327e235e31461008a57806361bf49ee146100c75780637b1949d214610106575b600080fd5b6100886101ab565b005b34801561009657600080fd5b506100b160048036038101906100ac91906109ee565b610288565b6040516100be9190610a34565b60405180910390f35b3480156100d357600080fd5b506100ee60048036038101906100e99190610a7b565b6102a0565b6040516100fd93929190610ad2565b60405180910390f35b610120600480360381019061011b9190610a7b565b6102fd565b005b61012a61052c565b005b34801561013857600080fd5b50610153600480360381019061014e9190610a7b565b6105bd565b005b34801561016157600080fd5b5061017c60048036038101906101779190610b09565b610696565b005b34801561018a57600080fd5b50610193610781565b6040516101a293929190610d83565b60405180910390f35b60003390506000600160008373ffffffffffffffffffffffffffffffffffffffff1673ffffffffffffffffffffffffffffffffffffffff1681526020019081526020016000205490506000811161020157600080fd5b6000600160008473ffffffffffffffffffffffffffffffffffffffff1673ffffffffffffffffffffffffffffffffffffffff168152602001908152602001600020819055508173ffffffffffffffffffffffffffffffffffffffff166108fc829081150290604051600060405180830381858888f1935050505061028457600080fd5b5050565b60016020528060005260406000206000915090505481565b600281600c81106102b057600080fd5b600202016000915090508060000160009054906101000a900473ffffffffffffffffffffffffffffffffffffffff16908060000160149054906101000a900460ff16908060010154905083565b6000600282600c811061031357610312610dcf565b5b6002020190508060000160009054906101000a900473ffffffffffffffffffffffffffffffffffffffff1673ffffffffffffffffffffffffffffffffffffffff163373ffffffffffffffffffffffffffffffffffffffff161415801561038757508060000160149054906101000a900460ff165b8015610397575080600101543410155b6103a057600080fd5b8060000160009054906101000a900473ffffffffffffffffffffffffffffffffffffffff1673ffffffffffffffffffffffffffffffffffffffff163373ffffffffffffffffffffffffffffffffffffffff161415801561040e57508060000160149054906101000a900460ff165b61041757600080fd5b34600160008360000160009054906101000a900473ffffffffffffffffffffffffffffffffffffffff1673ffffffffffffffffffffffffffffffffffffffff1673ffffffffffffffffffffffffffffffffffffffff168152602001908152602001600020600082825461048a9190610e2d565b92505081905550338160000160006101000a81548173ffffffffffffffffffffffffffffffffffffffff021916908373ffffffffffffffffffffffffffffffffffffffff16021790555060008160000160146101000a81548160ff0219169083151502179055507fdfae03cf228ff8c45c20fc02b731bb43373364bd428f52e24885f609814ce497826040516105209190610a34565b60405180910390a15050565b60008054906101000a900473ffffffffffffffffffffffffffffffffffffffff1673ffffffffffffffffffffffffffffffffffffffff163373ffffffffffffffffffffffffffffffffffffffff161461058457600080fd5b60008054906101000a900473ffffffffffffffffffffffffffffffffffffffff1673ffffffffffffffffffffffffffffffffffffffff16ff5b6000600282600c81106105d3576105d2610dcf565b5b6002020190508060000160009054906101000a900473ffffffffffffffffffffffffffffffffffffffff1673ffffffffffffffffffffffffffffffffffffffff163373ffffffffffffffffffffffffffffffffffffffff161461063557600080fd5b60008160000160146101000a81548160ff0219169083151502179055507ff8d85ddec75c998a4715c6f8d537607faa56efa42937f3ed1e18eb6ab0ab4af3828260010154600060405161068a93929190610e61565b60405180910390a15050565b6000600283600c81106106ac576106ab610dcf565b5b6002020190508060000160009054906101000a900473ffffffffffffffffffffffffffffffffffffffff1673ffffffffffffffffffffffffffffffffffffffff163373ffffffffffffffffffffffffffffffffffffffff161480156107115750600082115b61071a57600080fd5b60018160000160146101000a81548160ff0219169083151502179055508181600101819055507ff8d85ddec75c998a4715c6f8d537607faa56efa42937f3ed1e18eb6ab0ab4af38383600160405161077493929190610e61565b60405180910390a1505050565b60608060606000600c67ffffffffffffffff8111156107a3576107a2610e98565b5b6040519080825280602002602001820160405280156107d15781602001602082028036833780820191505090505b5090506000600c67ffffffffffffffff8111156107f1576107f0610e98565b5b60405190808252806020026020018201604052801561081f5781602001602082028036833780820191505090505b5090506000600c67ffffffffffffffff81111561083f5761083e610e98565b5b60405190808252806020026020018201604052801561086d5781602001602082028036833780820191505090505b50905060005b600c811015610979576000600282600c811061089257610891610dcf565b5b6002020190508060000160009054906101000a900473ffffffffffffffffffffffffffffffffffffffff168583815181106108d0576108cf610dcf565b5b602002602001019073ffffffffffffffffffffffffffffffffffffffff16908173ffffffffffffffffffffffffffffffffffffffff1681525050806001015483838151811061092257610921610dcf565b5b6020026020010181815250508060000160149054906101000a900460ff1684838151811061095357610952610dcf565b5b60200260200101901515908115158152505050808061097190610ec7565b915050610873565b50828282955095509550505050909192565b600080fd5b600073ffffffffffffffffffffffffffffffffffffffff82169050919050565b60006109bb82610990565b9050919050565b6109cb816109b0565b81146109d657600080fd5b50565b6000813590506109e8816109c2565b92915050565b600060208284031215610a0457610a0361098b565b5b6000610a12848285016109d9565b91505092915050565b6000819050919050565b610a2e81610a1b565b82525050565b6000602082019050610a496000830184610a25565b92915050565b610a5881610a1b565b8114610a6357600080fd5b50565b600081359050610a7581610a4f565b92915050565b600060208284031215610a9157610a9061098b565b5b6000610a9f84828501610a66565b91505092915050565b610ab1816109b0565b82525050565b60008115159050919050565b610acc81610ab7565b82525050565b6000606082019050610ae76000830186610aa8565b610af46020830185610ac3565b610b016040830184610a25565b949350505050565b60008060408385031215610b2057610b1f61098b565b5b6000610b2e85828601610a66565b9250506020610b3f85828601610a66565b9150509250929050565b600081519050919050565b600082825260208201905092915050565b6000819050602082019050919050565b610b7e816109b0565b82525050565b6000610b908383610b75565b60208301905092915050565b6000602082019050919050565b6000610bb482610b49565b610bbe8185610b54565b9350610bc983610b65565b8060005b83811015610bfa578151610be18882610b84565b9750610bec83610b9c565b925050600181019050610bcd565b5085935050505092915050565b600081519050919050565b600082825260208201905092915050565b6000819050602082019050919050565b610c3c81610ab7565b82525050565b6000610c4e8383610c33565b60208301905092915050565b6000602082019050919050565b6000610c7282610c07565b610c7c8185610c12565b9350610c8783610c23565b8060005b83811015610cb8578151610c9f8882610c42565b9750610caa83610c5a565b925050600181019050610c8b565b5085935050505092915050565b600081519050919050565b600082825260208201905092915050565b6000819050602082019050919050565b610cfa81610a1b565b82525050565b6000610d0c8383610cf1565b60208301905092915050565b6000602082019050919050565b6000610d3082610cc5565b610d3a8185610cd0565b9350610d4583610ce1565b8060005b83811015610d76578151610d5d8882610d00565b9750610d6883610d18565b925050600181019050610d49565b5085935050505092915050565b60006060820190508181036000830152610d9d8186610ba9565b90508181036020830152610db18185610c67565b90508181036040830152610dc58184610d25565b9050949350505050565b7f4e487b7100000000000000000000000000000000000000000000000000000000600052603260045260246000fd5b7f4e487b7100000000000000000000000000000000000000000000000000000000600052601160045260246000fd5b6000610e3882610a1b565b9150610e4383610a1b565b9250828201905080821115610e5b57610e5a610dfe565b5b92915050565b6000606082019050610e766000830186610a25565b610e836020830185610a25565b610e906040830184610ac3565b949350505050565b7f4e487b7100000000000000000000000000000000000000000000000000000000600052604160045260246000fd5b6000610ed282610a1b565b91507fffffffffffffffffffffffffffffffffffffffffffffffffffffffffffffffff8203610f0457610f03610dfe565b5b60018201905091905056fea264697066735822122041186055ed4ff6f0a22b8d1d046d3725dab34cbeeed1b38e276c8da28da47ab064736f6c63430008110033",
  "immutableReferences": {},
  "source": "// SPDX-License-Identifier: MIT\r\npragma solidity ^0.8.11;\r\n\r\ncontract LandContract {\r\n    address payable owner;\r\n    mapping (address => uint) public balances;\r\n    \r\n    struct Plot {\r\n        address owner;\r\n        bool forSale;\r\n        uint price;\r\n    }\r\n    \r\n    Plot[12] public plots;\r\n    \r\n    event PlotOwnerChanged(\r\n        uint index\r\n    );\r\n    \r\n    event PlotPriceChanged(\r\n        uint index,\r\n        uint price\r\n    );\r\n    \r\n    event PlotAvailabilityChanged(\r\n        uint index,\r\n        uint price,\r\n        bool forSale\r\n    );\r\n    \r\n    constructor() {\r\n        owner = payable (msg.sender);\r\n        plots[0].price = 4000;\r\n        plots[0].forSale = true;\r\n        plots[1].price = 4000;\r\n        plots[1].forSale = true;\r\n        plots[2].price = 4000;\r\n        plots[2].forSale = true;\r\n        plots[3].price = 4000;\r\n        plots[3].forSale = true;\r\n        plots[4].price = 4000;\r\n        plots[4].forSale = true;\r\n        plots[5].price = 4000;\r\n        plots[5].forSale = true;\r\n        plots[6].price = 4000;\r\n        plots[6].forSale = true;\r\n        plots[7].price = 4000;\r\n        plots[7].forSale = true;\r\n        plots[8].price = 4000;\r\n        plots[8].forSale = true;\r\n        plots[9].price = 4000;\r\n        plots[9].forSale = true;\r\n        plots[10].price = 4000;\r\n        plots[10].forSale = true;\r\n        plots[11].price = 4000;\r\n        plots[11].forSale = true;\r\n        \r\n    }\r\n    \r\n    function putPlotUpForSale(uint index, uint price) public {\r\n        Plot storage plot = plots[index];\r\n        \r\n        require(msg.sender == plot.owner && price > 0);\r\n        \r\n        plot.forSale = true;\r\n        plot.price = price;\r\n        emit PlotAvailabilityChanged(index, price, true);\r\n    }\r\n    \r\n    function takeOffMarket(uint index) public {\r\n        Plot storage plot = plots[index];\r\n        \r\n        require(msg.sender == plot.owner);\r\n        \r\n        plot.forSale = false;\r\n        emit PlotAvailabilityChanged(index, plot.price, false);\r\n    }\r\n    \r\n    function getPlots() public view returns(address[] memory, bool[] memory, uint[] memory) {\r\n        address[] memory addrs = new address[](12);\r\n        bool[] memory available = new bool[](12);\r\n        uint[] memory price = new uint[](12);\r\n        \r\n        for (uint i = 0; i < 12; i++) {\r\n            Plot storage plot = plots[i];\r\n            addrs[i] = plot.owner;\r\n            price[i] = plot.price;\r\n            available[i] = plot.forSale;\r\n        }\r\n        \r\n        return (addrs, available, price);\r\n    }\r\n    \r\n    function buyPlot(uint index) public payable {\r\n        Plot storage plot = plots[index];\r\n        \r\n        require(msg.sender != plot.owner && plot.forSale && msg.value >= plot.price);\r\n        \r\n        require(msg.sender != plot.owner && plot.forSale);\r\n        balances[plot.owner] += msg.value;\r\n        \r\n        plot.owner = msg.sender;\r\n        plot.forSale = false;\r\n        \r\n        emit PlotOwnerChanged(index);\r\n    }\r\n    \r\n    function withdrawFunds()payable public {\r\n        address payable payee = payable (msg.sender);\r\n          uint payment = balances[payee];\r\n    \r\n          require(payment > 0);\r\n    \r\n          balances[payee] = 0;\r\n          require (payee.send(payment));\r\n    }\r\n    \r\n    \r\n    function destroy() payable public {\r\n        require(msg.sender == owner);\r\n        selfdestruct(owner);\r\n    }\r\n}",
  "sourcePath": "C:\\Users\\Qosain\\Desktop\\blockchainProject\\contracts\\LandContract.sol",
  "compiler": {
    "name": "solc",
    "version": "0.8.17+commit.8df45f5f.Emscripten.clang"
  },
  "schemaVersion": "3.4.10",
  "updatedAt": "2022-11-28T21:39:09.482Z",
  "networkType": "ethereum",
  "devdoc": {
    "kind": "dev",
    "methods": {},
    "version": 1
  },
  "userdoc": {
    "kind": "user",
    "methods": {},
    "version": 1
  }
}